{
  "_format": "hh-sol-artifact-1",
  "contractName": "NewsVerification",
  "sourceName": "contracts/NewsPortal.sol",
  "abi": [
    {
      "inputs": [],
      "stateMutability": "nonpayable",
      "type": "constructor"
    },
    {
      "anonymous": false,
      "inputs": [
        {
          "indexed": true,
          "internalType": "uint256",
          "name": "newsId",
          "type": "uint256"
        },
        {
          "indexed": true,
          "internalType": "address",
          "name": "reporter",
          "type": "address"
        },
        {
          "indexed": false,
          "internalType": "bool",
          "name": "isReal",
          "type": "bool"
        },
        {
          "indexed": false,
          "internalType": "uint256",
          "name": "timestamp",
          "type": "uint256"
        }
      ],
      "name": "NewsAdded",
      "type": "event"
    },
    {
      "inputs": [
        {
          "internalType": "string",
          "name": "_content",
          "type": "string"
        },
        {
          "internalType": "bool",
          "name": "_isReal",
          "type": "bool"
        }
      ],
      "name": "addNews",
      "outputs": [],
      "stateMutability": "nonpayable",
      "type": "function"
    },
    {
      "inputs": [],
      "name": "getNewsChain",
      "outputs": [
        {
          "components": [
            {
              "internalType": "address",
              "name": "reporter",
              "type": "address"
            },
            {
              "internalType": "string",
              "name": "content",
              "type": "string"
            },
            {
              "internalType": "bool",
              "name": "isReal",
              "type": "bool"
            },
            {
              "internalType": "uint256",
              "name": "timestamp",
              "type": "uint256"
            }
          ],
          "internalType": "struct NewsVerification.NewsItem[]",
          "name": "",
          "type": "tuple[]"
        }
      ],
      "stateMutability": "view",
      "type": "function"
    },
    {
      "inputs": [],
      "name": "getOwner",
      "outputs": [
        {
          "internalType": "address",
          "name": "",
          "type": "address"
        }
      ],
      "stateMutability": "view",
      "type": "function"
    },
    {
      "inputs": [],
      "name": "getTotalNewsCount",
      "outputs": [
        {
          "internalType": "uint256",
          "name": "",
          "type": "uint256"
        }
      ],
      "stateMutability": "view",
      "type": "function"
    },
    {
      "inputs": [
        {
          "internalType": "uint256",
          "name": "",
          "type": "uint256"
        }
      ],
      "name": "newsChain",
      "outputs": [
        {
          "internalType": "address",
          "name": "reporter",
          "type": "address"
        },
        {
          "internalType": "string",
          "name": "content",
          "type": "string"
        },
        {
          "internalType": "bool",
          "name": "isReal",
          "type": "bool"
        },
        {
          "internalType": "uint256",
          "name": "timestamp",
          "type": "uint256"
        }
      ],
      "stateMutability": "view",
      "type": "function"
    }
  ],
  "bytecode": "0x6080604052348015600f57600080fd5b50336000806101000a81548173ffffffffffffffffffffffffffffffffffffffff021916908373ffffffffffffffffffffffffffffffffffffffff160217905550610f238061005f6000396000f3fe608060405234801561001057600080fd5b50600436106100575760003560e01c80632567a9fc1461005c578063403ecbf91461008f5780635eb3fe24146100ad578063893d20e8146100c9578063b60e64f3146100e7575b600080fd5b610076600480360381019061007191906105cc565b610105565b60405161008694939291906106f4565b60405180910390f35b6100976101fa565b6040516100a49190610740565b60405180910390f35b6100c760048036038101906100c291906108bc565b610207565b005b6100d16103ed565b6040516100de9190610918565b60405180910390f35b6100ef610416565b6040516100fc9190610acf565b60405180910390f35b6001818154811061011557600080fd5b90600052602060002090600402016000915090508060000160009054906101000a900473ffffffffffffffffffffffffffffffffffffffff169080600101805461015e90610b20565b80601f016020809104026020016040519081016040528092919081815260200182805461018a90610b20565b80156101d75780601f106101ac576101008083540402835291602001916101d7565b820191906000526020600020905b8154815290600101906020018083116101ba57829003601f168201915b5050505050908060020160009054906101000a900460ff16908060030154905084565b6000600180549050905090565b60008054906101000a900473ffffffffffffffffffffffffffffffffffffffff1673ffffffffffffffffffffffffffffffffffffffff163373ffffffffffffffffffffffffffffffffffffffff1614610295576040517f08c379a000000000000000000000000000000000000000000000000000000000815260040161028c90610bc3565b60405180910390fd5b600060405180608001604052803373ffffffffffffffffffffffffffffffffffffffff1681526020018481526020018315158152602001428152509050600181908060018154018082558091505060019003906000526020600020906004020160009091909190915060008201518160000160006101000a81548173ffffffffffffffffffffffffffffffffffffffff021916908373ffffffffffffffffffffffffffffffffffffffff160217905550602082015181600101908161035a9190610d8f565b5060408201518160020160006101000a81548160ff0219169083151502179055506060820151816003015550503373ffffffffffffffffffffffffffffffffffffffff16600180805490506103af9190610e90565b7f4dfdba7d9e540bb32548f0ff144ed2ebc9f756b1b8a88729f86329c19396411c84426040516103e0929190610ec4565b60405180910390a3505050565b60008060009054906101000a900473ffffffffffffffffffffffffffffffffffffffff16905090565b60606001805480602002602001604051908101604052809291908181526020016000905b8282101561057957838290600052602060002090600402016040518060800160405290816000820160009054906101000a900473ffffffffffffffffffffffffffffffffffffffff1673ffffffffffffffffffffffffffffffffffffffff1673ffffffffffffffffffffffffffffffffffffffff1681526020016001820180546104c390610b20565b80601f01602080910402602001604051908101604052809291908181526020018280546104ef90610b20565b801561053c5780601f106105115761010080835404028352916020019161053c565b820191906000526020600020905b81548152906001019060200180831161051f57829003601f168201915b505050505081526020016002820160009054906101000a900460ff161515151581526020016003820154815250508152602001906001019061043a565b50505050905090565b6000604051905090565b600080fd5b600080fd5b6000819050919050565b6105a981610596565b81146105b457600080fd5b50565b6000813590506105c6816105a0565b92915050565b6000602082840312156105e2576105e161058c565b5b60006105f0848285016105b7565b91505092915050565b600073ffffffffffffffffffffffffffffffffffffffff82169050919050565b6000610624826105f9565b9050919050565b61063481610619565b82525050565b600081519050919050565b600082825260208201905092915050565b60005b83811015610674578082015181840152602081019050610659565b60008484015250505050565b6000601f19601f8301169050919050565b600061069c8261063a565b6106a68185610645565b93506106b6818560208601610656565b6106bf81610680565b840191505092915050565b60008115159050919050565b6106df816106ca565b82525050565b6106ee81610596565b82525050565b6000608082019050610709600083018761062b565b818103602083015261071b8186610691565b905061072a60408301856106d6565b61073760608301846106e5565b95945050505050565b600060208201905061075560008301846106e5565b92915050565b600080fd5b600080fd5b7f4e487b7100000000000000000000000000000000000000000000000000000000600052604160045260246000fd5b61079d82610680565b810181811067ffffffffffffffff821117156107bc576107bb610765565b5b80604052505050565b60006107cf610582565b90506107db8282610794565b919050565b600067ffffffffffffffff8211156107fb576107fa610765565b5b61080482610680565b9050602081019050919050565b82818337600083830152505050565b600061083361082e846107e0565b6107c5565b90508281526020810184848401111561084f5761084e610760565b5b61085a848285610811565b509392505050565b600082601f8301126108775761087661075b565b5b8135610887848260208601610820565b91505092915050565b610899816106ca565b81146108a457600080fd5b50565b6000813590506108b681610890565b92915050565b600080604083850312156108d3576108d261058c565b5b600083013567ffffffffffffffff8111156108f1576108f0610591565b5b6108fd85828601610862565b925050602061090e858286016108a7565b9150509250929050565b600060208201905061092d600083018461062b565b92915050565b600081519050919050565b600082825260208201905092915050565b6000819050602082019050919050565b61096881610619565b82525050565b600082825260208201905092915050565b600061098a8261063a565b610994818561096e565b93506109a4818560208601610656565b6109ad81610680565b840191505092915050565b6109c1816106ca565b82525050565b6109d081610596565b82525050565b60006080830160008301516109ee600086018261095f565b5060208301518482036020860152610a06828261097f565b9150506040830151610a1b60408601826109b8565b506060830151610a2e60608601826109c7565b508091505092915050565b6000610a4583836109d6565b905092915050565b6000602082019050919050565b6000610a6582610933565b610a6f818561093e565b935083602082028501610a818561094f565b8060005b85811015610abd5784840389528151610a9e8582610a39565b9450610aa983610a4d565b925060208a01995050600181019050610a85565b50829750879550505050505092915050565b60006020820190508181036000830152610ae98184610a5a565b905092915050565b7f4e487b7100000000000000000000000000000000000000000000000000000000600052602260045260246000fd5b60006002820490506001821680610b3857607f821691505b602082108103610b4b57610b4a610af1565b5b50919050565b7f4f6e6c7920746865206f776e65722063616e20706572666f726d20746869732060008201527f616374696f6e2e00000000000000000000000000000000000000000000000000602082015250565b6000610bad602783610645565b9150610bb882610b51565b604082019050919050565b60006020820190508181036000830152610bdc81610ba0565b9050919050565b60008190508160005260206000209050919050565b60006020601f8301049050919050565b600082821b905092915050565b600060088302610c457fffffffffffffffffffffffffffffffffffffffffffffffffffffffffffffffff82610c08565b610c4f8683610c08565b95508019841693508086168417925050509392505050565b6000819050919050565b6000610c8c610c87610c8284610596565b610c67565b610596565b9050919050565b6000819050919050565b610ca683610c71565b610cba610cb282610c93565b848454610c15565b825550505050565b600090565b610ccf610cc2565b610cda818484610c9d565b505050565b5b81811015610cfe57610cf3600082610cc7565b600181019050610ce0565b5050565b601f821115610d4357610d1481610be3565b610d1d84610bf8565b81016020851015610d2c578190505b610d40610d3885610bf8565b830182610cdf565b50505b505050565b600082821c905092915050565b6000610d6660001984600802610d48565b1980831691505092915050565b6000610d7f8383610d55565b9150826002028217905092915050565b610d988261063a565b67ffffffffffffffff811115610db157610db0610765565b5b610dbb8254610b20565b610dc6828285610d02565b600060209050601f831160018114610df95760008415610de7578287015190505b610df18582610d73565b865550610e59565b601f198416610e0786610be3565b60005b82811015610e2f57848901518255600182019150602085019450602081019050610e0a565b86831015610e4c5784890151610e48601f891682610d55565b8355505b6001600288020188555050505b505050505050565b7f4e487b7100000000000000000000000000000000000000000000000000000000600052601160045260246000fd5b6000610e9b82610596565b9150610ea683610596565b9250828203905081811115610ebe57610ebd610e61565b5b92915050565b6000604082019050610ed960008301856106d6565b610ee660208301846106e5565b939250505056fea264697066735822122041eccd0cf6e3ff475679cdde67fd9ce3b8ebfaf839559cbd57de5bc9d675f06164736f6c634300081c0033",
  "linkReferences": {},
  "deployedLinkReferences": {}
}